:100000005BEF01F00000000000EF00F000000000D6
:0A0010000000000000000000F3D71C
:0A001C00530E0D6E0D2EFED71200DC
:10002600240E0C6EB50E0D6E0D2EFED70C2EFCD7C3
:06003600000000001200B2
:0C003C00000000000000000000001200A6
:100048003EBE02D08A9601D08A863EBC02D08A94EF
:1000580001D08A843EBA02D08A9201D08A823EB800
:1000680002D08A9001D08A802BB002D08A8801D031
:100078008A988A8ADFDF8A9A3EB602D08A9601D0A9
:100088008A863EB402D08A9401D08A843EB202D0D5
:100098008A9201D08A823EB002D08A9001D08A80AA
:1000A8002BB002D08A8801D08A988A8AC3DF8A9ABC
:0C00B8002BA002D0B4DF01D0ADDF12009D
:1000C400086A096A100E0C6E0134083609360450A9
:1000D400085E0550D8A0053C095ED8B007D004508E
:1000E40008260550D8B0053C0926D89000360136BC
:0600F4000C2EEAD71200F9
:0C00FA002B903DC03EF0A3DF2B801200D5
:10010600939A939893909392939493968A9A8A98B3
:100116008A968A948A928A9083DF82DF81DF8A8236
:100126008A808A8A88DF8A9A7BDF8A8A84DF8A9A2B
:1001360077DF8A8A80DF8A9A73DF8A908A8A7BDFF2
:100146008A9A6EDF8A8A77DF8A9A8A928A868A8A6A
:1001560072DF8A9A65DF8A968A808A8A6CDF8A9A33
:100166008A908A8A68DF8A9A5BDF8A8A64DF8A9A3B
:100176008A808A8A60DF8A9A53DF8A908A8A5BDF5E
:100186008A9A8A868A848A828A808A8A54DF8A9AA6
:0601960047DF2B80120080
:10019C000900F5CFE6FF0006FBE10106F9E11200CC
:1001AC003A6A050E3A5C0AE23A503824E16E000EC7
:1001BC003920E26E200EE66E3A2AF3D73A503824F4
:1001CC00E16E000E3920E26EE66A3A063A503824A7
:1001DC003B6E000E39203C6E0A0E046E000E056E4E
:1001EC0036C000F037C001F067DF08C000F009C06E
:1001FC0001F0300E00263BC0E1FF3CC0E2FF00C026
:10020C00E6FF0A0E046E000E056E36C000F037C015
:10021C0001F052DF00C036F001C037F0000E0118BB
:10022C0002E1000E001801E102D03A06CFD712000D
:10023C000FD0800E366E19D0C00E366E16D0940EBE
:10024C00366E13D0D40E366E10D0800E366E0DD0A6
:10025C003650010AEEE03650020AEEE03650030A40
:10026C00EEE03650040AEEE0F0D73704006E36505C
:10027C00002600C036F000C03EF0E0DE2B903A6A5B
:10028C003A503824E96E000E3920EA6EEE520BE03B
:10029C003A503824E96E000E3920EA6EEECF3DF06C
:0A02AC0026DF3A2AEDD72B8012005E
:1002B600AEEC01F09280010EC26E0E0EC16E900E73
:1002C600C06E1EDF010E3E6EBCDE0C0E3E6EB9DE4B
:1002D600010E366E010E376E150E386E000E396E33
:1002E600AADF020E366E010E376E1B0E386E000E3A
:1002F600396EA1DFC282C2A201D0FDD7C4CF36F0CB
:10030600000E376EC3503612000E37122C0E386EA2
:10031600000E396E48DF010E366E050E376E2C0E56
:10032600386E000E396E87DF820E0C6EDD0E0D6E96
:100336000D2EFED70C2EFCD700000000DBD7FFD712
:10035C0010EE15F0160E006E010E016E460EF66EC6
:0E036C00030EF76E000EF86ECEEC00F01200DD
:060346004144433A20008F
:10034C0053454C303033362E2E2E2E2E2E2E2E0084
:020000040030CA
:0E000000000C1F1EFF8381FF0FC00FE00F409A
:00000001FF
