:10000000C3EF06F00000000000EF00F00000000069
:0A0010000000000000000000F3D71C
:08001C000AAE029E000E120064
:100024000B840BAE1DEF00F0010E036E026A016A31
:0A003400006A0A360232FF0E1200C5
:10003E00240E0C6EB50E0D6E0D2EFED70C2EFCD7AB
:06004E000000000012009A
:100054000B820BAE34EF00F003680268016800689D
:080064000A360232FF0E120001
:0C006C0000000000000000000000120076
:0A007800530E0D6E0D2EFED7120080
:0E008200026A016A006A086A036A000E120030
:1000900043BE02D08A9601D08A8643BC02D08A949D
:1000A00001D08A8443BA02D08A9201D08A8243B8AE
:1000B00002D08A9001D08A8015B002D08A8801D0FF
:1000C0008A988A8AD3DF8A9A43B602D08A9601D068
:1000D0008A8643B402D08A9401D08A8443B202D083
:1000E0008A9201D08A8243B002D08A9001D08A805D
:1000F00015B002D08A8801D08A988A8AB7DF8A9A96
:0C01000015A002D09CDF01D0B7DF120078
:10010C000CB0C8EF00F00CA26EEF01F00E6A000EFE
:10011C000264DFEF00F0F00E0214D8A4AAEF00F096
:10012C00023A01380F0B02260138F00B016E003831
:10013C000F0B01260038F00B006E08380F0B002651
:10014C000838F00B086E0E84D89002BEC3EF00F096
:10015C0008360036013602360E2A02BEC3EF00F016
:10016C0008360036013602360E2A02BEC3EF00F006
:10017C0008360036013602360E2A0E50036464EF40
:10018C0001F0035E0BBC08AE69EF01F0D880800E65
:10019C0008640030000E002201220222D8A069EF70
:1001AC0001F0023201320032034A6EEF01F069EFC6
:1001BC0001F001C002F000C001F008C000F0086AB4
:1001CC00000E0E86026416EF01F0F00E0214D8A495
:1001DC00FEEF00F0023A01380F0B02260138F00B4B
:1001EC00016E00380F0B01260038F00B006E0E84E8
:1001FC00D89002BEC3EF00F00036013602360E2A4C
:10020C0002BEC3EF00F00036013602360E2A02BEE3
:10021C00C3EF00F00036013602360E2AC3EF00F0B1
:10022C0001C002F000C001F0006A000E0E960E88AC
:10023C00026443EF01F0F00E0214D8A42EEF01F08B
:10024C00023A01380F0B02260138F00B016E0E84B6
:10025C00D89002BEC3EF00F0013602360E2A02BE61
:10026C00C3EF00F0013602360E2A02BEC3EF00F0D7
:10027C00013602360E2AC3EF00F001C002F0016A0B
:10028C00000E0E86026473EF01F0F00E0214D8A477
:10029C0052EF01F0023A0E84D89002BEC3EF00F088
:1002AC0002360E2A02BEC3EF00F002360E2A02BE40
:1002BC00C3EF00F002360E2AC3EF00F0010E0C6EF5
:1002CC00ABDE76EF01F0020E0C6EA2DE76EF01F0E3
:1002DC00040E0C6EB9DE76EF01F0080E0C6ECBDE60
:0202EC001200FE
:1002EE000C6A0E6A0250D8A490EF01F001C002F021
:1002FE0000C001F0006A0E860250D8A490EF01F003
:10030E0001C002F0016A0E960E880250D8B4A2EF18
:10031E0001F00E50035ED8A4D8A0A7EF01F0D8903C
:10032E0002BEACEF01F0003601360236032E97EF17
:10033E0001F0A7EF01F0010E0C6E9CDEAFEF01F0A5
:10034E00020E0C6E68DEAFEF01F0040E0C6E5FDE77
:02035E0012008B
:0C036000159042C043F094DE158012009E
:10036C00086A096A100E0C6E0134083609360450FE
:10037C00085E0550D8A0053C095ED8B007D00450E3
:10038C0008260550D8B0053C0926D8900036013611
:06039C000C2EEAD712004E
:1003A2000B800BAEDDEF01F0026A0AAEFF0E026EA9
:0C03B200016E006E0A360232FF0E1200CF
:1003BE00025006180E6E086A096A0B6A035007642B
:1003CE00D2EF02F006500A6E068E028E03500B6EAE
:1003DE000750036E000E0B6422EF02F00B50075E07
:1003EE00D8B4C3EF02F0070E076491EF02F0075E78
:1003FE0000C008F001C000F002C001F0026A074E12
:10040E00C3EF02F0076466EF02F0075E00C008F06B
:10041E0001C000F0016A074EC3EF02F0076444EF1B
:10042E0002F0075E00C008F0006A074EC3EF02F04C
:10043E0007642BEF02F00AC002F005C001F004C001
:10044E0000F0086AECEF03F0030E076436EF02F0DB
:10045E00075E08380F0B086E074EC3EF02F0D890F8
:10046E000832074EC3EF02F0D8900832074EC3EFA2
:10047E0002F0D8900832C3EF02F0030E076455EF76
:10048E0002F0075E08380F0B086E0038F00B0826D6
:10049E0000380F0B006E074EC3EF02F0D8900032FB
:1004AE000832074EC3EF02F0D89000320832074EE2
:1004BE00C3EF02F0D89000320832C3EF02F0030E01
:1004CE0007647DEF02F0075E08380F0B086E0038E8
:1004DE00F00B082600380F0B006E0138F00B0026CB
:1004EE0001380F0B016E074EC3EF02F0D8900132A8
:1004FE0000320832074EC3EF02F0D89001320032BC
:10050E000832074EC3EF02F0D890013200320832A3
:10051E00C3EF02F0030E0764AEEF02F0075E083879
:10052E000F0B086E0038F00B082600380F0B006E0C
:10053E000138F00B002601380F0B016E0238F00B5C
:10054E00012602380F0B026E074EC3EF02F0D89051
:10055E000232013200320832074EC3EF02F0D89059
:10056E000232013200320832074EC3EF02F0D89049
:10057E000232013200320832096A000E0EAEB7EFB7
:10058E0003F0081E001E011E021E082A0022012270
:10059E000222B7EF03F00750D8A4D8EF02F0ECEF29
:1005AE0003F0096A02C00AF0028E068E0750035C41
:1005BE00076ED8B4AAEF03F0070E076478EF03F0C6
:1005CE00075E0450096E0550046E0650056E066AED
:1005DE00074EAAEF03F0070E07644DEF03F0075E18
:1005EE000450096E0550046E056A074EAAEF03F01B
:1005FE00070E07642BEF03F0075E0450096E046AC2
:10060E00074EAAEF03F0070E076412EF03F00AC0BD
:10061E0002F0ECEF03F0030E07641DEF03F0075E2C
:10062E0009380F0B096E074EAAEF03F0D890093266
:10063E00074EAAEF03F0D8900932074EAAEF03F047
:10064E00D8900932AAEF03F0030E07643CEF03F0D3
:10065E00075E09380F0B096E0438F00B09260438B3
:10066E000F0B046E074EAAEF03F0D8900432093236
:10067E00074EAAEF03F0D89004320932074EAAEFC4
:10068E0003F0D89004320932AAEF03F0030E076488
:10069E0064EF03F0075E09380F0B096E0438F00B98
:1006AE00092604380F0B046E0538F00B04260538A6
:1006BE000F0B056E074EAAEF03F0D89005320432E9
:1006CE000932074EAAEF03F0D890053204320932F0
:1006DE00074EAAEF03F0D890053204320932AAEF82
:1006EE0003F0030E076495EF03F0075E09380F0B56
:1006FE00096E0438F00B092604380F0B046E05380A
:10070E00F00B042605380F0B056E0638F00B052688
:10071E0006380F0B066E074EAAEF03F0D89006327E
:10072E00053204320932074EAAEF03F0D890063292
:10073E00053204320932074EAAEF03F0D890063282
:10074E00053204320932086A000E0EAEB7EF03F01E
:10075E00091E041E051E061E092A04220522062253
:10076E00095008260450002205500122065002228C
:10077E000EBECEEF03F0D8A0DDEF03F00232013251
:10078E0000320832033EDDEF03F0E7EF03F0D8B09E
:10079E00E2EF03F0000E081E001E011E021E082AC4
:1007AE000022012202220A7EE2EF03F0010E0C6EFD
:1007BE00A6DCEEEF03F0020E0C6EA1DCEEEF03F002
:1007CE00040E0C6E40DCEEEF03F0000E0C6E120009
:0807DE000B6A0B86FF0E1200EE
:1007E6000900F5CFE6FF0006FBE10106F9E112007C
:1007F600939A939893909392939493968A9A8A98BD
:100806008A968A948A928A9017DC16DC15DC8A828C
:100816008A808A8A28DC8A9A0FDC8A8A24DC8A9A69
:100826000BDC8A8A20DC8A9A07DC8A908A8A1BDC9F
:100836008A9A02DC8A8A17DC8A9A8A928A868A8A45
:1008460012DC8A9A1FEC00F08A968A808A8A0BDC70
:100856008A9A8A908A8A07DC8A9A1FEC00F08A8A2A
:1008660002DC8A9A8A808A8A36EC00F08A9A1FEC21
:1008760000F08A908A8A36EC00F08A9A8A868A8400
:100886008A828A808A8A36EC00F08A9A1FEC00F007
:0408960015801200B7
:10089A000FD0800E3B6E19D0C00E3B6E16D0940E50
:1008AA003B6E13D0D40E3B6E10D0800E3B6E0DD033
:1008BA003B50010AEEE03B50020AEEE03B50030ACD
:1008CA00EEE03B50040AEEE0F0D73C04006E3B50E9
:1008DA00002600C03BF000C043F048EC00F0159041
:1008EA003F6A3F503D24E96E000E3E20EA6EEE520A
:1008FA000BE03F503D24E96E000E3E20EA6EEECF3B
:0C090A0042F029DD3F2AEDD715801200D5
:1009160000C008F00150006E016A026A036A0B6AA1
:100926000C6A016A026A036A960E036E0A6A00AED0
:10093600A3EF04F0081E001E082AD8B4002A0A8E67
:1009460000C001F008C000F0086A026ACDDC12009F
:06095600067E32DD1200F6
:10095C003F6A050E3F5C0AE23F503D24E16E000EFB
:10096C003E20E26E200EE66E3F2AF3D73F503D2428
:10097C00E16E000E3E20E26EE66A3F063F503D24DB
:10098C00406E000E3E20416E0A0E046E000E056E87
:10099C003BC000F03CC001F0E3DC08C000F009C033
:1009AC0001F0300E002640C0E1FF41C0E2FF00C064
:1009BC00E6FF0A0E046E000E056E3BC000F03CC054
:1009CC0001F0CEDC00C03BF001C03CF0000E011881
:1009DC0002E1000E001801E102D03F06CFD7120051
:1009EC000B6A0350D8B43CEF05F002500A6E028E2D
:1009FC008E0E035E03AE40EF05F0036C080E035C35
:100A0C00D8A01BEF05F0036E013602C001F0026A9C
:100A1C00080E035CD8A01BEF05F0036E0136016ACB
:100A2C000350D8A4D89025EF05F00350D8B425EF87
:100A3C0005F0D89002320132032E1FEF05F00BBCEB
:100A4C0001A032EF05F0D8A032EF05F0012AD8B49E
:100A5C00022A02BE4FEF05F00AAE54EF05F0021E5B
:100A6C00011E012AD8B4022A54EF05F0026A016A69
:100A7C0054EF05F00B800BAE58EF05F0026A0AAE8E
:100A8C0058EF05F0FF0E026E016E0A36023258EF77
:100A9C0005F0010E0C6E7FDC5AEF05F0000E0C6EAB
:100AAC005AEF05F0FF0E0C6E0150006E0250016EF5
:020ABC00120026
:100ABE000050086E0150006E016A026A036A0B6AEA
:100ACE000C6A960E036E0A6A00C001F008C000F0B0
:080ADE00086A026A05DC12003F
:100AE600086A096A000E07620364F8EF05F002500F
:100AF60006180A6E075003267E0ED8A089EF05F069
:100B0600035ED8B0FDEF05F08DEF05F0035ED8A0CB
:100B160002EF06F0028E068E02C00EF001C00BF048
:100B260000C00DF000500402F4CF0CF00150050295
:100B3600F4CF00F0F3CF08F00402F3500C26F45083
:100B46000822000E00220D500502F3500C26F45028
:100B56000822000E002202500402F3500826F45028
:100B6600002202500502016A000E0122F3500026FF
:100B7600F45001220D500602F3500826F4500022CC
:100B8600026A000E012202220B500602F3500026D2
:100B9600F4500122000E02220E500602F3500126E6
:100BA600F450022202BEE0EF05F0083600360136A8
:100BB60002360306D8B402EF06F0F3EF05F0D8804C
:100BC600800E08640030000E002201220222D8A006
:100BD600F3EF05F0023201320032034AFDEF05F071
:100BE6000AAE029E000E05EF06F0010E41EC00F083
:100BF60005EF06F0020E2AEC00F005EF06F0040EF3
:060C060012EC00F01200E8
:100C0C000450000A12E10550000A0FE10650000AD8
:100C1C000CE10750000A09E1FF0E006EFF0E016E99
:100C2C007F0E026EFF0E036EA7D0086A096A07508A
:100C3C00D8B4B1EF06F00350D8B4B5EF06F00250BB
:100C4C0006180A6E028E068E0E6A02C008F001C0EB
:100C5C000CF000C00DF004500D5E0550D8A0053C02
:100C6C000C5E0650D8A0063C085E086A0C6A0D6A39
:100C7C00D8A048EF06F0D890023201320032083288
:100C8C00010E0E6E0750035ED8A055EF06F07E0ED7
:100C9C000E240326D8B0BAEF06F05BEF06F07E0EFA
:100CAC000E240326D8A0BFEF06F0180E0B6E0D36DF
:100CBC000C3608360036013602360E360450005E0D
:100CCC000550D8A0053C015E0650D8A0063C025E3B
:100CDC0006340E120EA076EF06F00D8081EF06F0B2
:100CEC00045000260550D8B0053C01260650D8B05B
:100CFC00062802260D900B2E5DEF06F0A7EF06F0EE
:100D0C00D8900036013602360E360450005E05507F
:100D1C00D8A0053C015E0650D8A0063C025E063405
:100D2C000E10010B0D26D8B00C2AD8B4082AD8A462
:100D3C00A7EF06F008320C320D32032AD8B4BAEF02
:100D4C0006F00AAE089E0850026E0C50016E0D5053
:100D5C00006EC2EF06F0010E3CDDC2EF06F0020E93
:100D6C0041EC00F0C2EF06F0040E2AEC00F0C2EFEA
:0A0D7C0006F0080E12EC00F0120061
:100D8600040EF66E0F0EF76E000EF86E160EE16E7E
:100D9600000EE26E170E006E010E016E21DD9280CE
:100DA600010EC26E0E0EC16E900EC06E21DD010EDA
:100DB600436E48EC00F00C0E436E48EC00F0010E5A
:100DC6003B6E010E3C6E160E3D6E000E3E6E62DDF3
:100DD600020E3B6E010E3C6E1C0E3D6E000E3E6E0C
:100DE60059DDC282C2A201D0FDD7C4CF01F0006A8C
:100DF600C3500012000E01125FDE000E046E000EDC
:100E0600056E200E066E810E076E6ADE000E046EFB
:100E1600C00E056E7F0E066E880E076EF4DE00C0ED
:100E260037F001C038F002C039F003C03AF037C0DD
:100E360000F038C001F039C002F03AC003F0D3DD4B
:100E460000C033F001C034F063DD00C004F001C01F
:100E560005F002C006F003C007F037C000F038C046
:100E660001F039C002F03AC003F072DD000E046EE4
:100E7600000E056E7A0E066E880E076E31DEB3DD45
:100E860000C035F001C036F000C03BF001C03CF0B8
:100E96002D0E3D6E000E3E6E5EDD800E3618006E27
:100EA600800E005C02E1640E355C0DE2300E2F6EA2
:100EB600800E3618006E800E005C02E10A0E355C6C
:100EC60002E2300E306E2E0E2E6E300E3324006E81
:100ED60000C02DF0010E3B6E0C0E3C6E2D0E3D6ECD
:100EE600000E3E6ED7DC820E0C6EDD0E0D6E0D2EE4
:0E0EF600FED70C2EFCD70000000073D7FFD7EC
:060F04004144433A2000C5
:100F0A0053454C303033362E2E2E2E2E2E2E2E2E8C
:010F1A0000D6
:020000040030CA
:0E000000000C1F1EFF8381FF0FC00FE00F409A
:00000001FF
